{
  "contractName": "TodoList",
  "abi": [
    {
      "inputs": [],
      "name": "taskCount",
      "outputs": [
        {
          "internalType": "uint256",
          "name": "",
          "type": "uint256"
        }
      ],
      "stateMutability": "view",
      "type": "function",
      "constant": true
    }
  ],
  "bytecode": "0x608060405260008055348015601357600080fd5b50607d806100226000396000f3fe6080604052348015600f57600080fd5b506004361060285760003560e01c8063b6cb58a514602d575b600080fd5b603560005481565b60405190815260200160405180910390f3fea26469706673582212200ccb9d4feb9ec0dfb1e6e5a619b4a72e509e4e48ad9dc21addb7629d3480dd5864736f6c63430008130033",
  "immutableReferences": {},
  "source": "pragma solidity ^0.8.19;\n\ncontract TodoList{\n    uint public taskCount = 0;\n    \n\n}",
  "sourcePath": "/Users/jiawensong/Documents/Sandbox/To-Do-List/contracts/TodoList.sol",
  "compiler": {
    "name": "solc",
    "version": "0.8.19+commit.7dd6d404.Emscripten.clang"
  },
  "schemaVersion": "3.4.16",
  "updatedAt": "2023-11-15T06:38:21.816Z",
  "networkType": "ethereum",
  "devdoc": {
    "kind": "dev",
    "methods": {},
    "version": 1
  },
  "userdoc": {
    "kind": "user",
    "methods": {},
    "version": 1
  }
}